{
  "project/contracts/StudentVerificationLedger.sol": {
    "StudentVerificationLedger": {
      "abi": [
        {
          "anonymous": false,
          "inputs": [
            {
              "indexed": true,
              "internalType": "string",
              "name": "studentId",
              "type": "string"
            },
            {
              "indexed": false,
              "internalType": "string",
              "name": "documentHash",
              "type": "string"
            },
            {
              "indexed": false,
              "internalType": "uint256",
              "name": "faceScore",
              "type": "uint256"
            },
            {
              "indexed": false,
              "internalType": "bool",
              "name": "verified",
              "type": "bool"
            },
            {
              "indexed": false,
              "internalType": "uint256",
              "name": "timestamp",
              "type": "uint256"
            }
          ],
          "name": "RecordAdded",
          "type": "event"
        },
        {
          "inputs": [
            {
              "internalType": "string",
              "name": "_studentId",
              "type": "string"
            },
            {
              "internalType": "string",
              "name": "_documentHash",
              "type": "string"
            },
            {
              "internalType": "uint256",
              "name": "_faceScore",
              "type": "uint256"
            },
            {
              "internalType": "bool",
              "name": "_verified",
              "type": "bool"
            }
          ],
          "name": "addVerificationRecord",
          "outputs": [],
          "stateMutability": "nonpayable",
          "type": "function"
        },
        {
          "inputs": [
            {
              "internalType": "string",
              "name": "_studentId",
              "type": "string"
            }
          ],
          "name": "getStudentHistory",
          "outputs": [
            {
              "components": [
                {
                  "internalType": "string",
                  "name": "studentId",
                  "type": "string"
                },
                {
                  "internalType": "string",
                  "name": "documentHash",
                  "type": "string"
                },
                {
                  "internalType": "uint256",
                  "name": "faceScore",
                  "type": "uint256"
                },
                {
                  "internalType": "bool",
                  "name": "verified",
                  "type": "bool"
                },
                {
                  "internalType": "uint256",
                  "name": "timestamp",
                  "type": "uint256"
                }
              ],
              "internalType": "struct StudentVerificationLedger.VerificationRecord[]",
              "name": "",
              "type": "tuple[]"
            }
          ],
          "stateMutability": "view",
          "type": "function"
        },
        {
          "inputs": [
            {
              "internalType": "string",
              "name": "_studentId",
              "type": "string"
            },
            {
              "internalType": "uint256",
              "name": "_index",
              "type": "uint256"
            }
          ],
          "name": "getVerificationRecord",
          "outputs": [
            {
              "components": [
                {
                  "internalType": "string",
                  "name": "studentId",
                  "type": "string"
                },
                {
                  "internalType": "string",
                  "name": "documentHash",
                  "type": "string"
                },
                {
                  "internalType": "uint256",
                  "name": "faceScore",
                  "type": "uint256"
                },
                {
                  "internalType": "bool",
                  "name": "verified",
                  "type": "bool"
                },
                {
                  "internalType": "uint256",
                  "name": "timestamp",
                  "type": "uint256"
                }
              ],
              "internalType": "struct StudentVerificationLedger.VerificationRecord",
              "name": "",
              "type": "tuple"
            }
          ],
          "stateMutability": "view",
          "type": "function"
        }
      ],
      "evm": {
        "bytecode": {
          "linkReferences": {},
          "object": "6080604052348015600e575f5ffd5b50610fdc8061001c5f395ff3fe608060405234801561000f575f5ffd5b506004361061003f575f3560e01c806304b464691461004357806338f938c21461005f57806359afd7151461008f575b5f5ffd5b61005d6004803603810190610058919061079b565b6100bf565b005b61007960048036038101906100749190610837565b6101ed565b6040516100869190610989565b60405180910390f35b6100a960048036038101906100a491906109a9565b6103f2565b6040516100b69190610b25565b60405180910390f35b5f4290505f6040518060a0016040528087815260200186815260200185815260200184151581526020018381525090505f866040516100fe9190610b7f565b908152602001604051809103902081908060018154018082558091505060019003905f5260205f2090600502015f909190919091505f820151815f0190816101469190610d92565b50602082015181600101908161015c9190610d92565b50604082015181600201556060820151816003015f6101000a81548160ff021916908315150217905550608082015181600401555050856040516101a09190610b7f565b60405180910390207fc79a4e077837a32ae18837765a51d51f15514774316190e7cbc009908276dd62868686866040516101dd9493929190610ec7565b60405180910390a2505050505050565b6101f56105b8565b5f836040516102049190610b7f565b9081526020016040518091039020805490508210610257576040517f08c379a000000000000000000000000000000000000000000000000000000000815260040161024e90610f5b565b60405180910390fd5b5f836040516102669190610b7f565b9081526020016040518091039020828154811061028657610285610f79565b5b905f5260205f2090600502016040518060a00160405290815f820180546102ac90610bc2565b80601f01602080910402602001604051908101604052809291908181526020018280546102d890610bc2565b80156103235780601f106102fa57610100808354040283529160200191610323565b820191905f5260205f20905b81548152906001019060200180831161030657829003601f168201915b5050505050815260200160018201805461033c90610bc2565b80601f016020809104026020016040519081016040528092919081815260200182805461036890610bc2565b80156103b35780601f1061038a576101008083540402835291602001916103b3565b820191905f5260205f20905b81548152906001019060200180831161039657829003601f168201915b5050505050815260200160028201548152602001600382015f9054906101000a900460ff16151515158152602001600482015481525050905092915050565b60605f826040516104039190610b7f565b9081526020016040518091039020805480602002602001604051908101604052809291908181526020015f905b828210156105ad578382905f5260205f2090600502016040518060a00160405290815f8201805461046090610bc2565b80601f016020809104026020016040519081016040528092919081815260200182805461048c90610bc2565b80156104d75780601f106104ae576101008083540402835291602001916104d7565b820191905f5260205f20905b8154815290600101906020018083116104ba57829003601f168201915b505050505081526020016001820180546104f090610bc2565b80601f016020809104026020016040519081016040528092919081815260200182805461051c90610bc2565b80156105675780601f1061053e57610100808354040283529160200191610567565b820191905f5260205f20905b81548152906001019060200180831161054a57829003601f168201915b5050505050815260200160028201548152602001600382015f9054906101000a900460ff1615151515815260200160048201548152505081526020019060010190610430565b505050509050919050565b6040518060a0016040528060608152602001606081526020015f81526020015f151581526020015f81525090565b5f604051905090565b5f5ffd5b5f5ffd5b5f5ffd5b5f5ffd5b5f601f19601f8301169050919050565b7f4e487b71000000000000000000000000000000000000000000000000000000005f52604160045260245ffd5b610645826105ff565b810181811067ffffffffffffffff821117156106645761066361060f565b5b80604052505050565b5f6106766105e6565b9050610682828261063c565b919050565b5f67ffffffffffffffff8211156106a1576106a061060f565b5b6106aa826105ff565b9050602081019050919050565b828183375f83830152505050565b5f6106d76106d284610687565b61066d565b9050828152602081018484840111156106f3576106f26105fb565b5b6106fe8482856106b7565b509392505050565b5f82601f83011261071a576107196105f7565b5b813561072a8482602086016106c5565b91505092915050565b5f819050919050565b61074581610733565b811461074f575f5ffd5b50565b5f813590506107608161073c565b92915050565b5f8115159050919050565b61077a81610766565b8114610784575f5ffd5b50565b5f8135905061079581610771565b92915050565b5f5f5f5f608085870312156107b3576107b26105ef565b5b5f85013567ffffffffffffffff8111156107d0576107cf6105f3565b5b6107dc87828801610706565b945050602085013567ffffffffffffffff8111156107fd576107fc6105f3565b5b61080987828801610706565b935050604061081a87828801610752565b925050606061082b87828801610787565b91505092959194509250565b5f5f6040838503121561084d5761084c6105ef565b5b5f83013567ffffffffffffffff81111561086a576108696105f3565b5b61087685828601610706565b925050602061088785828601610752565b9150509250929050565b5f81519050919050565b5f82825260208201905092915050565b8281835e5f83830152505050565b5f6108c382610891565b6108cd818561089b565b93506108dd8185602086016108ab565b6108e6816105ff565b840191505092915050565b6108fa81610733565b82525050565b61090981610766565b82525050565b5f60a083015f8301518482035f86015261092982826108b9565b9150506020830151848203602086015261094382826108b9565b915050604083015161095860408601826108f1565b50606083015161096b6060860182610900565b50608083015161097e60808601826108f1565b508091505092915050565b5f6020820190508181035f8301526109a1818461090f565b905092915050565b5f602082840312156109be576109bd6105ef565b5b5f82013567ffffffffffffffff8111156109db576109da6105f3565b5b6109e784828501610706565b91505092915050565b5f81519050919050565b5f82825260208201905092915050565b5f819050602082019050919050565b5f60a083015f8301518482035f860152610a3382826108b9565b91505060208301518482036020860152610a4d82826108b9565b9150506040830151610a6260408601826108f1565b506060830151610a756060860182610900565b506080830151610a8860808601826108f1565b508091505092915050565b5f610a9e8383610a19565b905092915050565b5f602082019050919050565b5f610abc826109f0565b610ac681856109fa565b935083602082028501610ad885610a0a565b805f5b85811015610b135784840389528151610af48582610a93565b9450610aff83610aa6565b925060208a01995050600181019050610adb565b50829750879550505050505092915050565b5f6020820190508181035f830152610b3d8184610ab2565b905092915050565b5f81905092915050565b5f610b5982610891565b610b638185610b45565b9350610b738185602086016108ab565b80840191505092915050565b5f610b8a8284610b4f565b915081905092915050565b7f4e487b71000000000000000000000000000000000000000000000000000000005f52602260045260245ffd5b5f6002820490506001821680610bd957607f821691505b602082108103610bec57610beb610b95565b5b50919050565b5f819050815f5260205f209050919050565b5f6020601f8301049050919050565b5f82821b905092915050565b5f60088302610c4e7fffffffffffffffffffffffffffffffffffffffffffffffffffffffffffffffff82610c13565b610c588683610c13565b95508019841693508086168417925050509392505050565b5f819050919050565b5f610c93610c8e610c8984610733565b610c70565b610733565b9050919050565b5f819050919050565b610cac83610c79565b610cc0610cb882610c9a565b848454610c1f565b825550505050565b5f5f905090565b610cd7610cc8565b610ce2818484610ca3565b505050565b5b81811015610d0557610cfa5f82610ccf565b600181019050610ce8565b5050565b601f821115610d4a57610d1b81610bf2565b610d2484610c04565b81016020851015610d33578190505b610d47610d3f85610c04565b830182610ce7565b50505b505050565b5f82821c905092915050565b5f610d6a5f1984600802610d4f565b1980831691505092915050565b5f610d828383610d5b565b9150826002028217905092915050565b610d9b82610891565b67ffffffffffffffff811115610db457610db361060f565b5b610dbe8254610bc2565b610dc9828285610d09565b5f60209050601f831160018114610dfa575f8415610de8578287015190505b610df28582610d77565b865550610e59565b601f198416610e0886610bf2565b5f5b82811015610e2f57848901518255600182019150602085019450602081019050610e0a565b86831015610e4c5784890151610e48601f891682610d5b565b8355505b6001600288020188555050505b505050505050565b5f82825260208201905092915050565b5f610e7b82610891565b610e858185610e61565b9350610e958185602086016108ab565b610e9e816105ff565b840191505092915050565b610eb281610733565b82525050565b610ec181610766565b82525050565b5f6080820190508181035f830152610edf8187610e71565b9050610eee6020830186610ea9565b610efb6040830185610eb8565b610f086060830184610ea9565b95945050505050565b7f5265636f726420696e646578206f7574206f6620626f756e64730000000000005f82015250565b5f610f45601a83610e61565b9150610f5082610f11565b602082019050919050565b5f6020820190508181035f830152610f7281610f39565b9050919050565b7f4e487b71000000000000000000000000000000000000000000000000000000005f52603260045260245ffdfea26469706673582212201caf4c0985ca035c77f6994a490000a99ad56ceb90d37d9fb8a3bc9ab8372d4a64736f6c634300081c0033",
          "opcodes": "PUSH1 0x80 PUSH1 0x40 MSTORE CALLVALUE DUP1 ISZERO PUSH1 0xE JUMPI PUSH0 PUSH0 REVERT JUMPDEST POP PUSH2 0xFDC DUP1 PUSH2 0x1C PUSH0 CODECOPY PUSH0 RETURN INVALID PUSH1 0x80 PUSH1 0x40 MSTORE CALLVALUE DUP1 ISZERO PUSH2 0xF JUMPI PUSH0 PUSH0 REVERT JUMPDEST POP PUSH1 0x4 CALLDATASIZE LT PUSH2 0x3F JUMPI PUSH0 CALLDATALOAD PUSH1 0xE0 SHR DUP1 PUSH4 0x4B46469 EQ PUSH2 0x43 JUMPI DUP1 PUSH4 0x38F938C2 EQ PUSH2 0x5F JUMPI DUP1 PUSH4 0x59AFD715 EQ PUSH2 0x8F JUMPI JUMPDEST PUSH0 PUSH0 REVERT JUMPDEST PUSH2 0x5D PUSH1 0x4 DUP1 CALLDATASIZE SUB DUP2 ADD SWAP1 PUSH2 0x58 SWAP2 SWAP1 PUSH2 0x79B JUMP JUMPDEST PUSH2 0xBF JUMP JUMPDEST STOP JUMPDEST PUSH2 0x79 PUSH1 0x4 DUP1 CALLDATASIZE SUB DUP2 ADD SWAP1 PUSH2 0x74 SWAP2 SWAP1 PUSH2 0x837 JUMP JUMPDEST PUSH2 0x1ED JUMP JUMPDEST PUSH1 0x40 MLOAD PUSH2 0x86 SWAP2 SWAP1 PUSH2 0x989 JUMP JUMPDEST PUSH1 0x40 MLOAD DUP1 SWAP2 SUB SWAP1 RETURN JUMPDEST PUSH2 0xA9 PUSH1 0x4 DUP1 CALLDATASIZE SUB DUP2 ADD SWAP1 PUSH2 0xA4 SWAP2 SWAP1 PUSH2 0x9A9 JUMP JUMPDEST PUSH2 0x3F2 JUMP JUMPDEST PUSH1 0x40 MLOAD PUSH2 0xB6 SWAP2 SWAP1 PUSH2 0xB25 JUMP JUMPDEST PUSH1 0x40 MLOAD DUP1 SWAP2 SUB SWAP1 RETURN JUMPDEST PUSH0 TIMESTAMP SWAP1 POP PUSH0 PUSH1 0x40 MLOAD DUP1 PUSH1 0xA0 ADD PUSH1 0x40 MSTORE DUP1 DUP8 DUP2 MSTORE PUSH1 0x20 ADD DUP7 DUP2 MSTORE PUSH1 0x20 ADD DUP6 DUP2 MSTORE PUSH1 0x20 ADD DUP5 ISZERO ISZERO DUP2 MSTORE PUSH1 0x20 ADD DUP4 DUP2 MSTORE POP SWAP1 POP PUSH0 DUP7 PUSH1 0x40 MLOAD PUSH2 0xFE SWAP2 SWAP1 PUSH2 0xB7F JUMP JUMPDEST SWAP1 DUP2 MSTORE PUSH1 0x20 ADD PUSH1 0x40 MLOAD DUP1 SWAP2 SUB SWAP1 KECCAK256 DUP2 SWAP1 DUP1 PUSH1 0x1 DUP2 SLOAD ADD DUP1 DUP3 SSTORE DUP1 SWAP2 POP POP PUSH1 0x1 SWAP1 SUB SWAP1 PUSH0 MSTORE PUSH1 0x20 PUSH0 KECCAK256 SWAP1 PUSH1 0x5 MUL ADD PUSH0 SWAP1 SWAP2 SWAP1 SWAP2 SWAP1 SWAP2 POP PUSH0 DUP3 ADD MLOAD DUP2 PUSH0 ADD SWAP1 DUP2 PUSH2 0x146 SWAP2 SWAP1 PUSH2 0xD92 JUMP JUMPDEST POP PUSH1 0x20 DUP3 ADD MLOAD DUP2 PUSH1 0x1 ADD SWAP1 DUP2 PUSH2 0x15C SWAP2 SWAP1 PUSH2 0xD92 JUMP JUMPDEST POP PUSH1 0x40 DUP3 ADD MLOAD DUP2 PUSH1 0x2 ADD SSTORE PUSH1 0x60 DUP3 ADD MLOAD DUP2 PUSH1 0x3 ADD PUSH0 PUSH2 0x100 EXP DUP2 SLOAD DUP2 PUSH1 0xFF MUL NOT AND SWAP1 DUP4 ISZERO ISZERO MUL OR SWAP1 SSTORE POP PUSH1 0x80 DUP3 ADD MLOAD DUP2 PUSH1 0x4 ADD SSTORE POP POP DUP6 PUSH1 0x40 MLOAD PUSH2 0x1A0 SWAP2 SWAP1 PUSH2 0xB7F JUMP JUMPDEST PUSH1 0x40 MLOAD DUP1 SWAP2 SUB SWAP1 KECCAK256 PUSH32 0xC79A4E077837A32AE18837765A51D51F15514774316190E7CBC009908276DD62 DUP7 DUP7 DUP7 DUP7 PUSH1 0x40 MLOAD PUSH2 0x1DD SWAP5 SWAP4 SWAP3 SWAP2 SWAP1 PUSH2 0xEC7 JUMP JUMPDEST PUSH1 0x40 MLOAD DUP1 SWAP2 SUB SWAP1 LOG2 POP POP POP POP POP POP JUMP JUMPDEST PUSH2 0x1F5 PUSH2 0x5B8 JUMP JUMPDEST PUSH0 DUP4 PUSH1 0x40 MLOAD PUSH2 0x204 SWAP2 SWAP1 PUSH2 0xB7F JUMP JUMPDEST SWAP1 DUP2 MSTORE PUSH1 0x20 ADD PUSH1 0x40 MLOAD DUP1 SWAP2 SUB SWAP1 KECCAK256 DUP1 SLOAD SWAP1 POP DUP3 LT PUSH2 0x257 JUMPI PUSH1 0x40 MLOAD PUSH32 0x8C379A000000000000000000000000000000000000000000000000000000000 DUP2 MSTORE PUSH1 0x4 ADD PUSH2 0x24E SWAP1 PUSH2 0xF5B JUMP JUMPDEST PUSH1 0x40 MLOAD DUP1 SWAP2 SUB SWAP1 REVERT JUMPDEST PUSH0 DUP4 PUSH1 0x40 MLOAD PUSH2 0x266 SWAP2 SWAP1 PUSH2 0xB7F JUMP JUMPDEST SWAP1 DUP2 MSTORE PUSH1 0x20 ADD PUSH1 0x40 MLOAD DUP1 SWAP2 SUB SWAP1 KECCAK256 DUP3 DUP2 SLOAD DUP2 LT PUSH2 0x286 JUMPI PUSH2 0x285 PUSH2 0xF79 JUMP JUMPDEST JUMPDEST SWAP1 PUSH0 MSTORE PUSH1 0x20 PUSH0 KECCAK256 SWAP1 PUSH1 0x5 MUL ADD PUSH1 0x40 MLOAD DUP1 PUSH1 0xA0 ADD PUSH1 0x40 MSTORE SWAP1 DUP2 PUSH0 DUP3 ADD DUP1 SLOAD PUSH2 0x2AC SWAP1 PUSH2 0xBC2 JUMP JUMPDEST DUP1 PUSH1 0x1F ADD PUSH1 0x20 DUP1 SWAP2 DIV MUL PUSH1 0x20 ADD PUSH1 0x40 MLOAD SWAP1 DUP2 ADD PUSH1 0x40 MSTORE DUP1 SWAP3 SWAP2 SWAP1 DUP2 DUP2 MSTORE PUSH1 0x20 ADD DUP3 DUP1 SLOAD PUSH2 0x2D8 SWAP1 PUSH2 0xBC2 JUMP JUMPDEST DUP1 ISZERO PUSH2 0x323 JUMPI DUP1 PUSH1 0x1F LT PUSH2 0x2FA JUMPI PUSH2 0x100 DUP1 DUP4 SLOAD DIV MUL DUP4 MSTORE SWAP2 PUSH1 0x20 ADD SWAP2 PUSH2 0x323 JUMP JUMPDEST DUP3 ADD SWAP2 SWAP1 PUSH0 MSTORE PUSH1 0x20 PUSH0 KECCAK256 SWAP1 JUMPDEST DUP2 SLOAD DUP2 MSTORE SWAP1 PUSH1 0x1 ADD SWAP1 PUSH1 0x20 ADD DUP1 DUP4 GT PUSH2 0x306 JUMPI DUP3 SWAP1 SUB PUSH1 0x1F AND DUP3 ADD SWAP2 JUMPDEST POP POP POP POP POP DUP2 MSTORE PUSH1 0x20 ADD PUSH1 0x1 DUP3 ADD DUP1 SLOAD PUSH2 0x33C SWAP1 PUSH2 0xBC2 JUMP JUMPDEST DUP1 PUSH1 0x1F ADD PUSH1 0x20 DUP1 SWAP2 DIV MUL PUSH1 0x20 ADD PUSH1 0x40 MLOAD SWAP1 DUP2 ADD PUSH1 0x40 MSTORE DUP1 SWAP3 SWAP2 SWAP1 DUP2 DUP2 MSTORE PUSH1 0x20 ADD DUP3 DUP1 SLOAD PUSH2 0x368 SWAP1 PUSH2 0xBC2 JUMP JUMPDEST DUP1 ISZERO PUSH2 0x3B3 JUMPI DUP1 PUSH1 0x1F LT PUSH2 0x38A JUMPI PUSH2 0x100 DUP1 DUP4 SLOAD DIV MUL DUP4 MSTORE SWAP2 PUSH1 0x20 ADD SWAP2 PUSH2 0x3B3 JUMP JUMPDEST DUP3 ADD SWAP2 SWAP1 PUSH0 MSTORE PUSH1 0x20 PUSH0 KECCAK256 SWAP1 JUMPDEST DUP2 SLOAD DUP2 MSTORE SWAP1 PUSH1 0x1 ADD SWAP1 PUSH1 0x20 ADD DUP1 DUP4 GT PUSH2 0x396 JUMPI DUP3 SWAP1 SUB PUSH1 0x1F AND DUP3 ADD SWAP2 JUMPDEST POP POP POP POP POP DUP2 MSTORE PUSH1 0x20 ADD PUSH1 0x2 DUP3 ADD SLOAD DUP2 MSTORE PUSH1 0x20 ADD PUSH1 0x3 DUP3 ADD PUSH0 SWAP1 SLOAD SWAP1 PUSH2 0x100 EXP SWAP1 DIV PUSH1 0xFF AND ISZERO ISZERO ISZERO ISZERO DUP2 MSTORE PUSH1 0x20 ADD PUSH1 0x4 DUP3 ADD SLOAD DUP2 MSTORE POP POP SWAP1 POP SWAP3 SWAP2 POP POP JUMP JUMPDEST PUSH1 0x60 PUSH0 DUP3 PUSH1 0x40 MLOAD PUSH2 0x403 SWAP2 SWAP1 PUSH2 0xB7F JUMP JUMPDEST SWAP1 DUP2 MSTORE PUSH1 0x20 ADD PUSH1 0x40 MLOAD DUP1 SWAP2 SUB SWAP1 KECCAK256 DUP1 SLOAD DUP1 PUSH1 0x20 MUL PUSH1 0x20 ADD PUSH1 0x40 MLOAD SWAP1 DUP2 ADD PUSH1 0x40 MSTORE DUP1 SWAP3 SWAP2 SWAP1 DUP2 DUP2 MSTORE PUSH1 0x20 ADD PUSH0 SWAP1 JUMPDEST DUP3 DUP3 LT ISZERO PUSH2 0x5AD JUMPI DUP4 DUP3 SWAP1 PUSH0 MSTORE PUSH1 0x20 PUSH0 KECCAK256 SWAP1 PUSH1 0x5 MUL ADD PUSH1 0x40 MLOAD DUP1 PUSH1 0xA0 ADD PUSH1 0x40 MSTORE SWAP1 DUP2 PUSH0 DUP3 ADD DUP1 SLOAD PUSH2 0x460 SWAP1 PUSH2 0xBC2 JUMP JUMPDEST DUP1 PUSH1 0x1F ADD PUSH1 0x20 DUP1 SWAP2 DIV MUL PUSH1 0x20 ADD PUSH1 0x40 MLOAD SWAP1 DUP2 ADD PUSH1 0x40 MSTORE DUP1 SWAP3 SWAP2 SWAP1 DUP2 DUP2 MSTORE PUSH1 0x20 ADD DUP3 DUP1 SLOAD PUSH2 0x48C SWAP1 PUSH2 0xBC2 JUMP JUMPDEST DUP1 ISZERO PUSH2 0x4D7 JUMPI DUP1 PUSH1 0x1F LT PUSH2 0x4AE JUMPI PUSH2 0x100 DUP1 DUP4 SLOAD DIV MUL DUP4 MSTORE SWAP2 PUSH1 0x20 ADD SWAP2 PUSH2 0x4D7 JUMP JUMPDEST DUP3 ADD SWAP2 SWAP1 PUSH0 MSTORE PUSH1 0x20 PUSH0 KECCAK256 SWAP1 JUMPDEST DUP2 SLOAD DUP2 MSTORE SWAP1 PUSH1 0x1 ADD SWAP1 PUSH1 0x20 ADD DUP1 DUP4 GT PUSH2 0x4BA JUMPI DUP3 SWAP1 SUB PUSH1 0x1F AND DUP3 ADD SWAP2 JUMPDEST POP POP POP POP POP DUP2 MSTORE PUSH1 0x20 ADD PUSH1 0x1 DUP3 ADD DUP1 SLOAD PUSH2 0x4F0 SWAP1 PUSH2 0xBC2 JUMP JUMPDEST DUP1 PUSH1 0x1F ADD PUSH1 0x20 DUP1 SWAP2 DIV MUL PUSH1 0x20 ADD PUSH1 0x40 MLOAD SWAP1 DUP2 ADD PUSH1 0x40 MSTORE DUP1 SWAP3 SWAP2 SWAP1 DUP2 DUP2 MSTORE PUSH1 0x20 ADD DUP3 DUP1 SLOAD PUSH2 0x51C SWAP1 PUSH2 0xBC2 JUMP JUMPDEST DUP1 ISZERO PUSH2 0x567 JUMPI DUP1 PUSH1 0x1F LT PUSH2 0x53E JUMPI PUSH2 0x100 DUP1 DUP4 SLOAD DIV MUL DUP4 MSTORE SWAP2 PUSH1 0x20 ADD SWAP2 PUSH2 0x567 JUMP JUMPDEST DUP3 ADD SWAP2 SWAP1 PUSH0 MSTORE PUSH1 0x20 PUSH0 KECCAK256 SWAP1 JUMPDEST DUP2 SLOAD DUP2 MSTORE SWAP1 PUSH1 0x1 ADD SWAP1 PUSH1 0x20 ADD DUP1 DUP4 GT PUSH2 0x54A JUMPI DUP3 SWAP1 SUB PUSH1 0x1F AND DUP3 ADD SWAP2 JUMPDEST POP POP POP POP POP DUP2 MSTORE PUSH1 0x20 ADD PUSH1 0x2 DUP3 ADD SLOAD DUP2 MSTORE PUSH1 0x20 ADD PUSH1 0x3 DUP3 ADD PUSH0 SWAP1 SLOAD SWAP1 PUSH2 0x100 EXP SWAP1 DIV PUSH1 0xFF AND ISZERO ISZERO ISZERO ISZERO DUP2 MSTORE PUSH1 0x20 ADD PUSH1 0x4 DUP3 ADD SLOAD DUP2 MSTORE POP POP DUP2 MSTORE PUSH1 0x20 ADD SWAP1 PUSH1 0x1 ADD SWAP1 PUSH2 0x430 JUMP JUMPDEST POP POP POP POP SWAP1 POP SWAP2 SWAP1 POP JUMP JUMPDEST PUSH1 0x40 MLOAD DUP1 PUSH1 0xA0 ADD PUSH1 0x40 MSTORE DUP1 PUSH1 0x60 DUP2 MSTORE PUSH1 0x20 ADD PUSH1 0x60 DUP2 MSTORE PUSH1 0x20 ADD PUSH0 DUP2 MSTORE PUSH1 0x20 ADD PUSH0 ISZERO ISZERO DUP2 MSTORE PUSH1 0x20 ADD PUSH0 DUP2 MSTORE POP SWAP1 JUMP JUMPDEST PUSH0 PUSH1 0x40 MLOAD SWAP1 POP SWAP1 JUMP JUMPDEST PUSH0 PUSH0 REVERT JUMPDEST PUSH0 PUSH0 REVERT JUMPDEST PUSH0 PUSH0 REVERT JUMPDEST PUSH0 PUSH0 REVERT JUMPDEST PUSH0 PUSH1 0x1F NOT PUSH1 0x1F DUP4 ADD AND SWAP1 POP SWAP2 SWAP1 POP JUMP JUMPDEST PUSH32 0x4E487B7100000000000000000000000000000000000000000000000000000000 PUSH0 MSTORE PUSH1 0x41 PUSH1 0x4 MSTORE PUSH1 0x24 PUSH0 REVERT JUMPDEST PUSH2 0x645 DUP3 PUSH2 0x5FF JUMP JUMPDEST DUP2 ADD DUP2 DUP2 LT PUSH8 0xFFFFFFFFFFFFFFFF DUP3 GT OR ISZERO PUSH2 0x664 JUMPI PUSH2 0x663 PUSH2 0x60F JUMP JUMPDEST JUMPDEST DUP1 PUSH1 0x40 MSTORE POP POP POP JUMP JUMPDEST PUSH0 PUSH2 0x676 PUSH2 0x5E6 JUMP JUMPDEST SWAP1 POP PUSH2 0x682 DUP3 DUP3 PUSH2 0x63C JUMP JUMPDEST SWAP2 SWAP1 POP JUMP JUMPDEST PUSH0 PUSH8 0xFFFFFFFFFFFFFFFF DUP3 GT ISZERO PUSH2 0x6A1 JUMPI PUSH2 0x6A0 PUSH2 0x60F JUMP JUMPDEST JUMPDEST PUSH2 0x6AA DUP3 PUSH2 0x5FF JUMP JUMPDEST SWAP1 POP PUSH1 0x20 DUP2 ADD SWAP1 POP SWAP2 SWAP1 POP JUMP JUMPDEST DUP3 DUP2 DUP4 CALLDATACOPY PUSH0 DUP4 DUP4 ADD MSTORE POP POP POP JUMP JUMPDEST PUSH0 PUSH2 0x6D7 PUSH2 0x6D2 DUP5 PUSH2 0x687 JUMP JUMPDEST PUSH2 0x66D JUMP JUMPDEST SWAP1 POP DUP3 DUP2 MSTORE PUSH1 0x20 DUP2 ADD DUP5 DUP5 DUP5 ADD GT ISZERO PUSH2 0x6F3 JUMPI PUSH2 0x6F2 PUSH2 0x5FB JUMP JUMPDEST JUMPDEST PUSH2 0x6FE DUP5 DUP3 DUP6 PUSH2 0x6B7 JUMP JUMPDEST POP SWAP4 SWAP3 POP POP POP JUMP JUMPDEST PUSH0 DUP3 PUSH1 0x1F DUP4 ADD SLT PUSH2 0x71A JUMPI PUSH2 0x719 PUSH2 0x5F7 JUMP JUMPDEST JUMPDEST DUP2 CALLDATALOAD PUSH2 0x72A DUP5 DUP3 PUSH1 0x20 DUP7 ADD PUSH2 0x6C5 JUMP JUMPDEST SWAP2 POP POP SWAP3 SWAP2 POP POP JUMP JUMPDEST PUSH0 DUP2 SWAP1 POP SWAP2 SWAP1 POP JUMP JUMPDEST PUSH2 0x745 DUP2 PUSH2 0x733 JUMP JUMPDEST DUP2 EQ PUSH2 0x74F JUMPI PUSH0 PUSH0 REVERT JUMPDEST POP JUMP JUMPDEST PUSH0 DUP2 CALLDATALOAD SWAP1 POP PUSH2 0x760 DUP2 PUSH2 0x73C JUMP JUMPDEST SWAP3 SWAP2 POP POP JUMP JUMPDEST PUSH0 DUP2 ISZERO ISZERO SWAP1 POP SWAP2 SWAP1 POP JUMP JUMPDEST PUSH2 0x77A DUP2 PUSH2 0x766 JUMP JUMPDEST DUP2 EQ PUSH2 0x784 JUMPI PUSH0 PUSH0 REVERT JUMPDEST POP JUMP JUMPDEST PUSH0 DUP2 CALLDATALOAD SWAP1 POP PUSH2 0x795 DUP2 PUSH2 0x771 JUMP JUMPDEST SWAP3 SWAP2 POP POP JUMP JUMPDEST PUSH0 PUSH0 PUSH0 PUSH0 PUSH1 0x80 DUP6 DUP8 SUB SLT ISZERO PUSH2 0x7B3 JUMPI PUSH2 0x7B2 PUSH2 0x5EF JUMP JUMPDEST JUMPDEST PUSH0 DUP6 ADD CALLDATALOAD PUSH8 0xFFFFFFFFFFFFFFFF DUP2 GT ISZERO PUSH2 0x7D0 JUMPI PUSH2 0x7CF PUSH2 0x5F3 JUMP JUMPDEST JUMPDEST PUSH2 0x7DC DUP8 DUP3 DUP9 ADD PUSH2 0x706 JUMP JUMPDEST SWAP5 POP POP PUSH1 0x20 DUP6 ADD CALLDATALOAD PUSH8 0xFFFFFFFFFFFFFFFF DUP2 GT ISZERO PUSH2 0x7FD JUMPI PUSH2 0x7FC PUSH2 0x5F3 JUMP JUMPDEST JUMPDEST PUSH2 0x809 DUP8 DUP3 DUP9 ADD PUSH2 0x706 JUMP JUMPDEST SWAP4 POP POP PUSH1 0x40 PUSH2 0x81A DUP8 DUP3 DUP9 ADD PUSH2 0x752 JUMP JUMPDEST SWAP3 POP POP PUSH1 0x60 PUSH2 0x82B DUP8 DUP3 DUP9 ADD PUSH2 0x787 JUMP JUMPDEST SWAP2 POP POP SWAP3 SWAP6 SWAP2 SWAP5 POP SWAP3 POP JUMP JUMPDEST PUSH0 PUSH0 PUSH1 0x40 DUP4 DUP6 SUB SLT ISZERO PUSH2 0x84D JUMPI PUSH2 0x84C PUSH2 0x5EF JUMP JUMPDEST JUMPDEST PUSH0 DUP4 ADD CALLDATALOAD PUSH8 0xFFFFFFFFFFFFFFFF DUP2 GT ISZERO PUSH2 0x86A JUMPI PUSH2 0x869 PUSH2 0x5F3 JUMP JUMPDEST JUMPDEST PUSH2 0x876 DUP6 DUP3 DUP7 ADD PUSH2 0x706 JUMP JUMPDEST SWAP3 POP POP PUSH1 0x20 PUSH2 0x887 DUP6 DUP3 DUP7 ADD PUSH2 0x752 JUMP JUMPDEST SWAP2 POP POP SWAP3 POP SWAP3 SWAP1 POP JUMP JUMPDEST PUSH0 DUP2 MLOAD SWAP1 POP SWAP2 SWAP1 POP JUMP JUMPDEST PUSH0 DUP3 DUP3 MSTORE PUSH1 0x20 DUP3 ADD SWAP1 POP SWAP3 SWAP2 POP POP JUMP JUMPDEST DUP3 DUP2 DUP4 MCOPY PUSH0 DUP4 DUP4 ADD MSTORE POP POP POP JUMP JUMPDEST PUSH0 PUSH2 0x8C3 DUP3 PUSH2 0x891 JUMP JUMPDEST PUSH2 0x8CD DUP2 DUP6 PUSH2 0x89B JUMP JUMPDEST SWAP4 POP PUSH2 0x8DD DUP2 DUP6 PUSH1 0x20 DUP7 ADD PUSH2 0x8AB JUMP JUMPDEST PUSH2 0x8E6 DUP2 PUSH2 0x5FF JUMP JUMPDEST DUP5 ADD SWAP2 POP POP SWAP3 SWAP2 POP POP JUMP JUMPDEST PUSH2 0x8FA DUP2 PUSH2 0x733 JUMP JUMPDEST DUP3 MSTORE POP POP JUMP JUMPDEST PUSH2 0x909 DUP2 PUSH2 0x766 JUMP JUMPDEST DUP3 MSTORE POP POP JUMP JUMPDEST PUSH0 PUSH1 0xA0 DUP4 ADD PUSH0 DUP4 ADD MLOAD DUP5 DUP3 SUB PUSH0 DUP7 ADD MSTORE PUSH2 0x929 DUP3 DUP3 PUSH2 0x8B9 JUMP JUMPDEST SWAP2 POP POP PUSH1 0x20 DUP4 ADD MLOAD DUP5 DUP3 SUB PUSH1 0x20 DUP7 ADD MSTORE PUSH2 0x943 DUP3 DUP3 PUSH2 0x8B9 JUMP JUMPDEST SWAP2 POP POP PUSH1 0x40 DUP4 ADD MLOAD PUSH2 0x958 PUSH1 0x40 DUP7 ADD DUP3 PUSH2 0x8F1 JUMP JUMPDEST POP PUSH1 0x60 DUP4 ADD MLOAD PUSH2 0x96B PUSH1 0x60 DUP7 ADD DUP3 PUSH2 0x900 JUMP JUMPDEST POP PUSH1 0x80 DUP4 ADD MLOAD PUSH2 0x97E PUSH1 0x80 DUP7 ADD DUP3 PUSH2 0x8F1 JUMP JUMPDEST POP DUP1 SWAP2 POP POP SWAP3 SWAP2 POP POP JUMP JUMPDEST PUSH0 PUSH1 0x20 DUP3 ADD SWAP1 POP DUP2 DUP2 SUB PUSH0 DUP4 ADD MSTORE PUSH2 0x9A1 DUP2 DUP5 PUSH2 0x90F JUMP JUMPDEST SWAP1 POP SWAP3 SWAP2 POP POP JUMP JUMPDEST PUSH0 PUSH1 0x20 DUP3 DUP5 SUB SLT ISZERO PUSH2 0x9BE JUMPI PUSH2 0x9BD PUSH2 0x5EF JUMP JUMPDEST JUMPDEST PUSH0 DUP3 ADD CALLDATALOAD PUSH8 0xFFFFFFFFFFFFFFFF DUP2 GT ISZERO PUSH2 0x9DB JUMPI PUSH2 0x9DA PUSH2 0x5F3 JUMP JUMPDEST JUMPDEST PUSH2 0x9E7 DUP5 DUP3 DUP6 ADD PUSH2 0x706 JUMP JUMPDEST SWAP2 POP POP SWAP3 SWAP2 POP POP JUMP JUMPDEST PUSH0 DUP2 MLOAD SWAP1 POP SWAP2 SWAP1 POP JUMP JUMPDEST PUSH0 DUP3 DUP3 MSTORE PUSH1 0x20 DUP3 ADD SWAP1 POP SWAP3 SWAP2 POP POP JUMP JUMPDEST PUSH0 DUP2 SWAP1 POP PUSH1 0x20 DUP3 ADD SWAP1 POP SWAP2 SWAP1 POP JUMP JUMPDEST PUSH0 PUSH1 0xA0 DUP4 ADD PUSH0 DUP4 ADD MLOAD DUP5 DUP3 SUB PUSH0 DUP7 ADD MSTORE PUSH2 0xA33 DUP3 DUP3 PUSH2 0x8B9 JUMP JUMPDEST SWAP2 POP POP PUSH1 0x20 DUP4 ADD MLOAD DUP5 DUP3 SUB PUSH1 0x20 DUP7 ADD MSTORE PUSH2 0xA4D DUP3 DUP3 PUSH2 0x8B9 JUMP JUMPDEST SWAP2 POP POP PUSH1 0x40 DUP4 ADD MLOAD PUSH2 0xA62 PUSH1 0x40 DUP7 ADD DUP3 PUSH2 0x8F1 JUMP JUMPDEST POP PUSH1 0x60 DUP4 ADD MLOAD PUSH2 0xA75 PUSH1 0x60 DUP7 ADD DUP3 PUSH2 0x900 JUMP JUMPDEST POP PUSH1 0x80 DUP4 ADD MLOAD PUSH2 0xA88 PUSH1 0x80 DUP7 ADD DUP3 PUSH2 0x8F1 JUMP JUMPDEST POP DUP1 SWAP2 POP POP SWAP3 SWAP2 POP POP JUMP JUMPDEST PUSH0 PUSH2 0xA9E DUP4 DUP4 PUSH2 0xA19 JUMP JUMPDEST SWAP1 POP SWAP3 SWAP2 POP POP JUMP JUMPDEST PUSH0 PUSH1 0x20 DUP3 ADD SWAP1 POP SWAP2 SWAP1 POP JUMP JUMPDEST PUSH0 PUSH2 0xABC DUP3 PUSH2 0x9F0 JUMP JUMPDEST PUSH2 0xAC6 DUP2 DUP6 PUSH2 0x9FA JUMP JUMPDEST SWAP4 POP DUP4 PUSH1 0x20 DUP3 MUL DUP6 ADD PUSH2 0xAD8 DUP6 PUSH2 0xA0A JUMP JUMPDEST DUP1 PUSH0 JUMPDEST DUP6 DUP2 LT ISZERO PUSH2 0xB13 JUMPI DUP5 DUP5 SUB DUP10 MSTORE DUP2 MLOAD PUSH2 0xAF4 DUP6 DUP3 PUSH2 0xA93 JUMP JUMPDEST SWAP5 POP PUSH2 0xAFF DUP4 PUSH2 0xAA6 JUMP JUMPDEST SWAP3 POP PUSH1 0x20 DUP11 ADD SWAP10 POP POP PUSH1 0x1 DUP2 ADD SWAP1 POP PUSH2 0xADB JUMP JUMPDEST POP DUP3 SWAP8 POP DUP8 SWAP6 POP POP POP POP POP POP SWAP3 SWAP2 POP POP JUMP JUMPDEST PUSH0 PUSH1 0x20 DUP3 ADD SWAP1 POP DUP2 DUP2 SUB PUSH0 DUP4 ADD MSTORE PUSH2 0xB3D DUP2 DUP5 PUSH2 0xAB2 JUMP JUMPDEST SWAP1 POP SWAP3 SWAP2 POP POP JUMP JUMPDEST PUSH0 DUP2 SWAP1 POP SWAP3 SWAP2 POP POP JUMP JUMPDEST PUSH0 PUSH2 0xB59 DUP3 PUSH2 0x891 JUMP JUMPDEST PUSH2 0xB63 DUP2 DUP6 PUSH2 0xB45 JUMP JUMPDEST SWAP4 POP PUSH2 0xB73 DUP2 DUP6 PUSH1 0x20 DUP7 ADD PUSH2 0x8AB JUMP JUMPDEST DUP1 DUP5 ADD SWAP2 POP POP SWAP3 SWAP2 POP POP JUMP JUMPDEST PUSH0 PUSH2 0xB8A DUP3 DUP5 PUSH2 0xB4F JUMP JUMPDEST SWAP2 POP DUP2 SWAP1 POP SWAP3 SWAP2 POP POP JUMP JUMPDEST PUSH32 0x4E487B7100000000000000000000000000000000000000000000000000000000 PUSH0 MSTORE PUSH1 0x22 PUSH1 0x4 MSTORE PUSH1 0x24 PUSH0 REVERT JUMPDEST PUSH0 PUSH1 0x2 DUP3 DIV SWAP1 POP PUSH1 0x1 DUP3 AND DUP1 PUSH2 0xBD9 JUMPI PUSH1 0x7F DUP3 AND SWAP2 POP JUMPDEST PUSH1 0x20 DUP3 LT DUP2 SUB PUSH2 0xBEC JUMPI PUSH2 0xBEB PUSH2 0xB95 JUMP JUMPDEST JUMPDEST POP SWAP2 SWAP1 POP JUMP JUMPDEST PUSH0 DUP2 SWAP1 POP DUP2 PUSH0 MSTORE PUSH1 0x20 PUSH0 KECCAK256 SWAP1 POP SWAP2 SWAP1 POP JUMP JUMPDEST PUSH0 PUSH1 0x20 PUSH1 0x1F DUP4 ADD DIV SWAP1 POP SWAP2 SWAP1 POP JUMP JUMPDEST PUSH0 DUP3 DUP3 SHL SWAP1 POP SWAP3 SWAP2 POP POP JUMP JUMPDEST PUSH0 PUSH1 0x8 DUP4 MUL PUSH2 0xC4E PUSH32 0xFFFFFFFFFFFFFFFFFFFFFFFFFFFFFFFFFFFFFFFFFFFFFFFFFFFFFFFFFFFFFFFF DUP3 PUSH2 0xC13 JUMP JUMPDEST PUSH2 0xC58 DUP7 DUP4 PUSH2 0xC13 JUMP JUMPDEST SWAP6 POP DUP1 NOT DUP5 AND SWAP4 POP DUP1 DUP7 AND DUP5 OR SWAP3 POP POP POP SWAP4 SWAP3 POP POP POP JUMP JUMPDEST PUSH0 DUP2 SWAP1 POP SWAP2 SWAP1 POP JUMP JUMPDEST PUSH0 PUSH2 0xC93 PUSH2 0xC8E PUSH2 0xC89 DUP5 PUSH2 0x733 JUMP JUMPDEST PUSH2 0xC70 JUMP JUMPDEST PUSH2 0x733 JUMP JUMPDEST SWAP1 POP SWAP2 SWAP1 POP JUMP JUMPDEST PUSH0 DUP2 SWAP1 POP SWAP2 SWAP1 POP JUMP JUMPDEST PUSH2 0xCAC DUP4 PUSH2 0xC79 JUMP JUMPDEST PUSH2 0xCC0 PUSH2 0xCB8 DUP3 PUSH2 0xC9A JUMP JUMPDEST DUP5 DUP5 SLOAD PUSH2 0xC1F JUMP JUMPDEST DUP3 SSTORE POP POP POP POP JUMP JUMPDEST PUSH0 PUSH0 SWAP1 POP SWAP1 JUMP JUMPDEST PUSH2 0xCD7 PUSH2 0xCC8 JUMP JUMPDEST PUSH2 0xCE2 DUP2 DUP5 DUP5 PUSH2 0xCA3 JUMP JUMPDEST POP POP POP JUMP JUMPDEST JUMPDEST DUP2 DUP2 LT ISZERO PUSH2 0xD05 JUMPI PUSH2 0xCFA PUSH0 DUP3 PUSH2 0xCCF JUMP JUMPDEST PUSH1 0x1 DUP2 ADD SWAP1 POP PUSH2 0xCE8 JUMP JUMPDEST POP POP JUMP JUMPDEST PUSH1 0x1F DUP3 GT ISZERO PUSH2 0xD4A JUMPI PUSH2 0xD1B DUP2 PUSH2 0xBF2 JUMP JUMPDEST PUSH2 0xD24 DUP5 PUSH2 0xC04 JUMP JUMPDEST DUP2 ADD PUSH1 0x20 DUP6 LT ISZERO PUSH2 0xD33 JUMPI DUP2 SWAP1 POP JUMPDEST PUSH2 0xD47 PUSH2 0xD3F DUP6 PUSH2 0xC04 JUMP JUMPDEST DUP4 ADD DUP3 PUSH2 0xCE7 JUMP JUMPDEST POP POP JUMPDEST POP POP POP JUMP JUMPDEST PUSH0 DUP3 DUP3 SHR SWAP1 POP SWAP3 SWAP2 POP POP JUMP JUMPDEST PUSH0 PUSH2 0xD6A PUSH0 NOT DUP5 PUSH1 0x8 MUL PUSH2 0xD4F JUMP JUMPDEST NOT DUP1 DUP4 AND SWAP2 POP POP SWAP3 SWAP2 POP POP JUMP JUMPDEST PUSH0 PUSH2 0xD82 DUP4 DUP4 PUSH2 0xD5B JUMP JUMPDEST SWAP2 POP DUP3 PUSH1 0x2 MUL DUP3 OR SWAP1 POP SWAP3 SWAP2 POP POP JUMP JUMPDEST PUSH2 0xD9B DUP3 PUSH2 0x891 JUMP JUMPDEST PUSH8 0xFFFFFFFFFFFFFFFF DUP2 GT ISZERO PUSH2 0xDB4 JUMPI PUSH2 0xDB3 PUSH2 0x60F JUMP JUMPDEST JUMPDEST PUSH2 0xDBE DUP3 SLOAD PUSH2 0xBC2 JUMP JUMPDEST PUSH2 0xDC9 DUP3 DUP3 DUP6 PUSH2 0xD09 JUMP JUMPDEST PUSH0 PUSH1 0x20 SWAP1 POP PUSH1 0x1F DUP4 GT PUSH1 0x1 DUP2 EQ PUSH2 0xDFA JUMPI PUSH0 DUP5 ISZERO PUSH2 0xDE8 JUMPI DUP3 DUP8 ADD MLOAD SWAP1 POP JUMPDEST PUSH2 0xDF2 DUP6 DUP3 PUSH2 0xD77 JUMP JUMPDEST DUP7 SSTORE POP PUSH2 0xE59 JUMP JUMPDEST PUSH1 0x1F NOT DUP5 AND PUSH2 0xE08 DUP7 PUSH2 0xBF2 JUMP JUMPDEST PUSH0 JUMPDEST DUP3 DUP2 LT ISZERO PUSH2 0xE2F JUMPI DUP5 DUP10 ADD MLOAD DUP3 SSTORE PUSH1 0x1 DUP3 ADD SWAP2 POP PUSH1 0x20 DUP6 ADD SWAP5 POP PUSH1 0x20 DUP2 ADD SWAP1 POP PUSH2 0xE0A JUMP JUMPDEST DUP7 DUP4 LT ISZERO PUSH2 0xE4C JUMPI DUP5 DUP10 ADD MLOAD PUSH2 0xE48 PUSH1 0x1F DUP10 AND DUP3 PUSH2 0xD5B JUMP JUMPDEST DUP4 SSTORE POP JUMPDEST PUSH1 0x1 PUSH1 0x2 DUP9 MUL ADD DUP9 SSTORE POP POP POP JUMPDEST POP POP POP POP POP POP JUMP JUMPDEST PUSH0 DUP3 DUP3 MSTORE PUSH1 0x20 DUP3 ADD SWAP1 POP SWAP3 SWAP2 POP POP JUMP JUMPDEST PUSH0 PUSH2 0xE7B DUP3 PUSH2 0x891 JUMP JUMPDEST PUSH2 0xE85 DUP2 DUP6 PUSH2 0xE61 JUMP JUMPDEST SWAP4 POP PUSH2 0xE95 DUP2 DUP6 PUSH1 0x20 DUP7 ADD PUSH2 0x8AB JUMP JUMPDEST PUSH2 0xE9E DUP2 PUSH2 0x5FF JUMP JUMPDEST DUP5 ADD SWAP2 POP POP SWAP3 SWAP2 POP POP JUMP JUMPDEST PUSH2 0xEB2 DUP2 PUSH2 0x733 JUMP JUMPDEST DUP3 MSTORE POP POP JUMP JUMPDEST PUSH2 0xEC1 DUP2 PUSH2 0x766 JUMP JUMPDEST DUP3 MSTORE POP POP JUMP JUMPDEST PUSH0 PUSH1 0x80 DUP3 ADD SWAP1 POP DUP2 DUP2 SUB PUSH0 DUP4 ADD MSTORE PUSH2 0xEDF DUP2 DUP8 PUSH2 0xE71 JUMP JUMPDEST SWAP1 POP PUSH2 0xEEE PUSH1 0x20 DUP4 ADD DUP7 PUSH2 0xEA9 JUMP JUMPDEST PUSH2 0xEFB PUSH1 0x40 DUP4 ADD DUP6 PUSH2 0xEB8 JUMP JUMPDEST PUSH2 0xF08 PUSH1 0x60 DUP4 ADD DUP5 PUSH2 0xEA9 JUMP JUMPDEST SWAP6 SWAP5 POP POP POP POP POP JUMP JUMPDEST PUSH32 0x5265636F726420696E646578206F7574206F6620626F756E6473000000000000 PUSH0 DUP3 ADD MSTORE POP JUMP JUMPDEST PUSH0 PUSH2 0xF45 PUSH1 0x1A DUP4 PUSH2 0xE61 JUMP JUMPDEST SWAP2 POP PUSH2 0xF50 DUP3 PUSH2 0xF11 JUMP JUMPDEST PUSH1 0x20 DUP3 ADD SWAP1 POP SWAP2 SWAP1 POP JUMP JUMPDEST PUSH0 PUSH1 0x20 DUP3 ADD SWAP1 POP DUP2 DUP2 SUB PUSH0 DUP4 ADD MSTORE PUSH2 0xF72 DUP2 PUSH2 0xF39 JUMP JUMPDEST SWAP1 POP SWAP2 SWAP1 POP JUMP JUMPDEST PUSH32 0x4E487B7100000000000000000000000000000000000000000000000000000000 PUSH0 MSTORE PUSH1 0x32 PUSH1 0x4 MSTORE PUSH1 0x24 PUSH0 REVERT INVALID LOG2 PUSH5 0x6970667358 0x22 SLT KECCAK256 SHR 0xAF 0x4C MULMOD DUP6 0xCA SUB TLOAD PUSH24 0xF6994A490000A99AD56CEB90D37D9FB8A3BC9AB8372D4A64 PUSH20 0x6F6C634300081C00330000000000000000000000 "
        },
        "methodIdentifiers": {
          "addVerificationRecord(string,string,uint256,bool)": "04b46469",
          "getStudentHistory(string)": "59afd715",
          "getVerificationRecord(string,uint256)": "38f938c2"
        }
      }
    }
  }
}